:100000000C94B4000C94C6000C94C6000C94C6006A
:100010000C94C6000C94C6000C94C6000C94C60048
:100020000C94C6000C94C6000C94C6000C94C60038
:100030000C94C6000C94C6000C94C8000C94C60026
:100040000C94C6000C94C6000C94C6000C94C60018
:100050000C94C6000C94C6000C94C6000C94C60008
:100060000C94C6000C94C600808386898C8F929570
:10007000989C9FA2A5A8ABAEB0B3B6B9BCBFC1C493
:10008000C7C9CCCED1D3D5D8DADCDEE0E2E4E6E8ED
:10009000EAECEDEFF0F2F3F5F6F7F8F9FAFBFCFC19
:1000A000FDFEFEFFFFFFFFFFFFFFFFFFFFFFFEFE66
:1000B000FDFCFCFBFAF9F8F7F6F5F3F2F0EFEDECE6
:1000C000EAE8E6E4E2E0DEDCDAD8D5D3D1CECCC98A
:1000D000C7C4C1BFBCB9B6B3B0AEABA8A5A29F9C04
:1000E0009895928F8C898683807C797673706D6AFF
:1000F0006763605D5A5754514F4C494643403E3BFD
:10010000383633312E2C2A272523211F1D1B191782
:10011000151312100F0D0C0A090807060504030336
:1001200002010100000000000000000000000101C9
:100130000203030405060708090A0C0D0F10121329
:100140001517191B1D1F212325272A2C2E31333665
:10015000383B3E404346494C4F5154575A5D6063CB
:10016000676A6D707376797C11241FBECFEFD8E07B
:10017000DEBFCDBF21E0A0E0B1E001C01D92A13003
:10018000B207E1F70E94FD000C9413010C940000EB
:100190001F920F920FB60F9211248F93EF93FF933C
:1001A000809100018F5F80930001E0910001F0E0F9
:1001B000E859FF4FE491F0E0F0938900E093880064
:1001C000E0910001EB5AF0E0E859FF4FE491F0E0D4
:1001D000F0938B00E0938A00E0910001E655F0E097
:1001E000E859FF4FE491E093B300FF91EF918F91B5
:1001F0000F900FBE0F901F90189584B18E6084B938
:1002000081EA8093800082E08093810091E890935E
:10021000B0008093B10094E697BD84BD85BD809306
:0A0220006E007894FFCFF894FFCF32
:00000001FF
